{
  "_format": "hh-sol-artifact-1",
  "contractName": "NFT",
  "sourceName": "contracts/NFT.sol",
  "abi": [
    {
      "inputs": [],
      "stateMutability": "payable",
      "type": "constructor"
    },
    {
      "anonymous": false,
      "inputs": [
        {
          "indexed": true,
          "internalType": "address",
          "name": "owner",
          "type": "address"
        },
        {
          "indexed": true,
          "internalType": "address",
          "name": "approved",
          "type": "address"
        },
        {
          "indexed": true,
          "internalType": "uint256",
          "name": "tokenId",
          "type": "uint256"
        }
      ],
      "name": "Approval",
      "type": "event"
    },
    {
      "anonymous": false,
      "inputs": [
        {
          "indexed": true,
          "internalType": "address",
          "name": "owner",
          "type": "address"
        },
        {
          "indexed": true,
          "internalType": "address",
          "name": "operator",
          "type": "address"
        },
        {
          "indexed": false,
          "internalType": "bool",
          "name": "approved",
          "type": "bool"
        }
      ],
      "name": "ApprovalForAll",
      "type": "event"
    },
    {
      "anonymous": false,
      "inputs": [
        {
          "indexed": true,
          "internalType": "address",
          "name": "previousOwner",
          "type": "address"
        },
        {
          "indexed": true,
          "internalType": "address",
          "name": "newOwner",
          "type": "address"
        }
      ],
      "name": "OwnershipTransferred",
      "type": "event"
    },
    {
      "anonymous": false,
      "inputs": [
        {
          "indexed": true,
          "internalType": "address",
          "name": "from",
          "type": "address"
        },
        {
          "indexed": true,
          "internalType": "address",
          "name": "to",
          "type": "address"
        },
        {
          "indexed": true,
          "internalType": "uint256",
          "name": "tokenId",
          "type": "uint256"
        }
      ],
      "name": "Transfer",
      "type": "event"
    },
    {
      "inputs": [
        {
          "internalType": "address",
          "name": "to",
          "type": "address"
        },
        {
          "internalType": "uint256",
          "name": "tokenId",
          "type": "uint256"
        }
      ],
      "name": "approve",
      "outputs": [],
      "stateMutability": "nonpayable",
      "type": "function"
    },
    {
      "inputs": [
        {
          "internalType": "address",
          "name": "owner",
          "type": "address"
        }
      ],
      "name": "balanceOf",
      "outputs": [
        {
          "internalType": "uint256",
          "name": "",
          "type": "uint256"
        }
      ],
      "stateMutability": "view",
      "type": "function"
    },
    {
      "inputs": [
        {
          "internalType": "uint256",
          "name": "tokenId",
          "type": "uint256"
        }
      ],
      "name": "getApproved",
      "outputs": [
        {
          "internalType": "address",
          "name": "",
          "type": "address"
        }
      ],
      "stateMutability": "view",
      "type": "function"
    },
    {
      "inputs": [
        {
          "internalType": "address",
          "name": "owner",
          "type": "address"
        },
        {
          "internalType": "address",
          "name": "operator",
          "type": "address"
        }
      ],
      "name": "isApprovedForAll",
      "outputs": [
        {
          "internalType": "bool",
          "name": "",
          "type": "bool"
        }
      ],
      "stateMutability": "view",
      "type": "function"
    },
    {
      "inputs": [],
      "name": "isPublicMintEnabled",
      "outputs": [
        {
          "internalType": "bool",
          "name": "",
          "type": "bool"
        }
      ],
      "stateMutability": "view",
      "type": "function"
    },
    {
      "inputs": [],
      "name": "maxPerWallet",
      "outputs": [
        {
          "internalType": "uint256",
          "name": "",
          "type": "uint256"
        }
      ],
      "stateMutability": "view",
      "type": "function"
    },
    {
      "inputs": [],
      "name": "maxSupply",
      "outputs": [
        {
          "internalType": "uint256",
          "name": "",
          "type": "uint256"
        }
      ],
      "stateMutability": "view",
      "type": "function"
    },
    {
      "inputs": [
        {
          "internalType": "uint256",
          "name": "quantity_",
          "type": "uint256"
        }
      ],
      "name": "mint",
      "outputs": [],
      "stateMutability": "payable",
      "type": "function"
    },
    {
      "inputs": [],
      "name": "mintPrice",
      "outputs": [
        {
          "internalType": "uint256",
          "name": "",
          "type": "uint256"
        }
      ],
      "stateMutability": "view",
      "type": "function"
    },
    {
      "inputs": [],
      "name": "name",
      "outputs": [
        {
          "internalType": "string",
          "name": "",
          "type": "string"
        }
      ],
      "stateMutability": "view",
      "type": "function"
    },
    {
      "inputs": [],
      "name": "owner",
      "outputs": [
        {
          "internalType": "address",
          "name": "",
          "type": "address"
        }
      ],
      "stateMutability": "view",
      "type": "function"
    },
    {
      "inputs": [
        {
          "internalType": "uint256",
          "name": "tokenId",
          "type": "uint256"
        }
      ],
      "name": "ownerOf",
      "outputs": [
        {
          "internalType": "address",
          "name": "",
          "type": "address"
        }
      ],
      "stateMutability": "view",
      "type": "function"
    },
    {
      "inputs": [],
      "name": "renounceOwnership",
      "outputs": [],
      "stateMutability": "nonpayable",
      "type": "function"
    },
    {
      "inputs": [
        {
          "internalType": "address",
          "name": "from",
          "type": "address"
        },
        {
          "internalType": "address",
          "name": "to",
          "type": "address"
        },
        {
          "internalType": "uint256",
          "name": "tokenId",
          "type": "uint256"
        }
      ],
      "name": "safeTransferFrom",
      "outputs": [],
      "stateMutability": "nonpayable",
      "type": "function"
    },
    {
      "inputs": [
        {
          "internalType": "address",
          "name": "from",
          "type": "address"
        },
        {
          "internalType": "address",
          "name": "to",
          "type": "address"
        },
        {
          "internalType": "uint256",
          "name": "tokenId",
          "type": "uint256"
        },
        {
          "internalType": "bytes",
          "name": "data",
          "type": "bytes"
        }
      ],
      "name": "safeTransferFrom",
      "outputs": [],
      "stateMutability": "nonpayable",
      "type": "function"
    },
    {
      "inputs": [
        {
          "internalType": "address",
          "name": "operator",
          "type": "address"
        },
        {
          "internalType": "bool",
          "name": "approved",
          "type": "bool"
        }
      ],
      "name": "setApprovalForAll",
      "outputs": [],
      "stateMutability": "nonpayable",
      "type": "function"
    },
    {
      "inputs": [
        {
          "internalType": "string",
          "name": "baseTokenUri_",
          "type": "string"
        }
      ],
      "name": "setBaseTokenUri",
      "outputs": [],
      "stateMutability": "nonpayable",
      "type": "function"
    },
    {
      "inputs": [
        {
          "internalType": "bool",
          "name": "isPublicMintEnabled_",
          "type": "bool"
        }
      ],
      "name": "setIsPublicMintEnabled",
      "outputs": [],
      "stateMutability": "nonpayable",
      "type": "function"
    },
    {
      "inputs": [
        {
          "internalType": "bytes4",
          "name": "interfaceId",
          "type": "bytes4"
        }
      ],
      "name": "supportsInterface",
      "outputs": [
        {
          "internalType": "bool",
          "name": "",
          "type": "bool"
        }
      ],
      "stateMutability": "view",
      "type": "function"
    },
    {
      "inputs": [],
      "name": "symbol",
      "outputs": [
        {
          "internalType": "string",
          "name": "",
          "type": "string"
        }
      ],
      "stateMutability": "view",
      "type": "function"
    },
    {
      "inputs": [
        {
          "internalType": "uint256",
          "name": "tokenId_",
          "type": "uint256"
        }
      ],
      "name": "tokenURI",
      "outputs": [
        {
          "internalType": "string",
          "name": "",
          "type": "string"
        }
      ],
      "stateMutability": "view",
      "type": "function"
    },
    {
      "inputs": [],
      "name": "totalSupply",
      "outputs": [
        {
          "internalType": "uint256",
          "name": "",
          "type": "uint256"
        }
      ],
      "stateMutability": "view",
      "type": "function"
    },
    {
      "inputs": [
        {
          "internalType": "address",
          "name": "from",
          "type": "address"
        },
        {
          "internalType": "address",
          "name": "to",
          "type": "address"
        },
        {
          "internalType": "uint256",
          "name": "tokenId",
          "type": "uint256"
        }
      ],
      "name": "transferFrom",
      "outputs": [],
      "stateMutability": "nonpayable",
      "type": "function"
    },
    {
      "inputs": [
        {
          "internalType": "address",
          "name": "newOwner",
          "type": "address"
        }
      ],
      "name": "transferOwnership",
      "outputs": [],
      "stateMutability": "nonpayable",
      "type": "function"
    },
    {
      "inputs": [
        {
          "internalType": "address",
          "name": "",
          "type": "address"
        }
      ],
      "name": "walletMints",
      "outputs": [
        {
          "internalType": "uint256",
          "name": "",
          "type": "uint256"
        }
      ],
      "stateMutability": "view",
      "type": "function"
    },
    {
      "inputs": [],
      "name": "withdraw",
      "outputs": [],
      "stateMutability": "nonpayable",
      "type": "function"
    },
    {
      "inputs": [],
      "name": "withdrawWallet",
      "outputs": [
        {
          "internalType": "address payable",
          "name": "",
          "type": "address"
        }
      ],
      "stateMutability": "view",
      "type": "function"
    }
  ],
  "bytecode": "0x60806040526040518060400160405280600581526020017f4d794e46540000000000000000000000000000000000000000000000000000008152506040518060400160405280600381526020017f4e46540000000000000000000000000000000000000000000000000000000000815250816000908162000081919062000480565b50806001908162000093919062000480565b505050620000b6620000aa6200013860201b60201c565b6200014060201b60201c565b66470de4df82000060078190555060006008819055506103e86009819055506003600a8190555073f336b69394cee5e92b525091e5dc3554126def93600d60006101000a81548173ffffffffffffffffffffffffffffffffffffffff021916908373ffffffffffffffffffffffffffffffffffffffff16021790555062000567565b600033905090565b6000600660009054906101000a900473ffffffffffffffffffffffffffffffffffffffff16905081600660006101000a81548173ffffffffffffffffffffffffffffffffffffffff021916908373ffffffffffffffffffffffffffffffffffffffff1602179055508173ffffffffffffffffffffffffffffffffffffffff168173ffffffffffffffffffffffffffffffffffffffff167f8be0079c531659141344cd1fd0a4f28419497f9722a3daafe3b4186f6b6457e060405160405180910390a35050565b600081519050919050565b7f4e487b7100000000000000000000000000000000000000000000000000000000600052604160045260246000fd5b7f4e487b7100000000000000000000000000000000000000000000000000000000600052602260045260246000fd5b600060028204905060018216806200028857607f821691505b6020821081036200029e576200029d62000240565b5b50919050565b60008190508160005260206000209050919050565b60006020601f8301049050919050565b600082821b905092915050565b600060088302620003087fffffffffffffffffffffffffffffffffffffffffffffffffffffffffffffffff82620002c9565b620003148683620002c9565b95508019841693508086168417925050509392505050565b6000819050919050565b6000819050919050565b6000620003616200035b62000355846200032c565b62000336565b6200032c565b9050919050565b6000819050919050565b6200037d8362000340565b620003956200038c8262000368565b848454620002d6565b825550505050565b600090565b620003ac6200039d565b620003b981848462000372565b505050565b5b81811015620003e157620003d5600082620003a2565b600181019050620003bf565b5050565b601f8211156200043057620003fa81620002a4565b6200040584620002b9565b8101602085101562000415578190505b6200042d6200042485620002b9565b830182620003be565b50505b505050565b600082821c905092915050565b6000620004556000198460080262000435565b1980831691505092915050565b600062000470838362000442565b9150826002028217905092915050565b6200048b8262000206565b67ffffffffffffffff811115620004a757620004a662000211565b5b620004b382546200026f565b620004c0828285620003e5565b600060209050601f831160018114620004f85760008415620004e3578287015190505b620004ef858262000462565b8655506200055f565b601f1984166200050886620002a4565b60005b8281101562000532578489015182556001820191506020850194506020810190506200050b565b868310156200055257848901516200054e601f89168262000442565b8355505b6001600288020188555050505b505050505050565b6135c680620005776000396000f3fe60806040526004361061019c5760003560e01c806370a08231116100ec578063a22cb4651161008a578063d5abeb0111610064578063d5abeb0114610593578063e985e9c5146105be578063f0293fd3146105fb578063f2fde38b146106385761019c565b8063a22cb46514610504578063b88d4fde1461052d578063c87b56dd146105565761019c565b80638da5cb5b116100c65780638da5cb5b1461046957806395652cfa1461049457806395d89b41146104bd578063a0712d68146104e85761019c565b806370a08231146103ea578063715018a61461042757806385d178f41461043e5761019c565b80632373ac221161015957806342842e0e1161013357806342842e0e1461032e578063453c2310146103575780636352211e146103825780636817c76c146103bf5761019c565b80632373ac22146102c557806323b872dd146102ee5780633ccfd60b146103175761019c565b80630116bc2d146101a157806301ffc9a7146101cc57806306fdde0314610209578063081812fc14610234578063095ea7b31461027157806318160ddd1461029a575b600080fd5b3480156101ad57600080fd5b506101b6610661565b6040516101c39190611fad565b60405180910390f35b3480156101d857600080fd5b506101f360048036038101906101ee9190612034565b610674565b6040516102009190611fad565b60405180910390f35b34801561021557600080fd5b5061021e610756565b60405161022b91906120f1565b60405180910390f35b34801561024057600080fd5b5061025b60048036038101906102569190612149565b6107e8565b60405161026891906121b7565b60405180910390f35b34801561027d57600080fd5b50610298600480360381019061029391906121fe565b61082e565b005b3480156102a657600080fd5b506102af610945565b6040516102bc919061224d565b60405180910390f35b3480156102d157600080fd5b506102ec60048036038101906102e79190612294565b61094b565b005b3480156102fa57600080fd5b50610315600480360381019061031091906122c1565b610970565b005b34801561032357600080fd5b5061032c6109d0565b005b34801561033a57600080fd5b50610355600480360381019061035091906122c1565b610aa9565b005b34801561036357600080fd5b5061036c610ac9565b604051610379919061224d565b60405180910390f35b34801561038e57600080fd5b506103a960048036038101906103a49190612149565b610acf565b6040516103b691906121b7565b60405180910390f35b3480156103cb57600080fd5b506103d4610b55565b6040516103e1919061224d565b60405180910390f35b3480156103f657600080fd5b50610411600480360381019061040c9190612314565b610b5b565b60405161041e919061224d565b60405180910390f35b34801561043357600080fd5b5061043c610c12565b005b34801561044a57600080fd5b50610453610c26565b6040516104609190612362565b60405180910390f35b34801561047557600080fd5b5061047e610c4c565b60405161048b91906121b7565b60405180910390f35b3480156104a057600080fd5b506104bb60048036038101906104b691906123e2565b610c76565b005b3480156104c957600080fd5b506104d2610c94565b6040516104df91906120f1565b60405180910390f35b61050260048036038101906104fd9190612149565b610d26565b005b34801561051057600080fd5b5061052b6004803603810190610526919061242f565b610e6e565b005b34801561053957600080fd5b50610554600480360381019061054f919061259f565b610e84565b005b34801561056257600080fd5b5061057d60048036038101906105789190612149565b610ee6565b60405161058a91906120f1565b60405180910390f35b34801561059f57600080fd5b506105a8610f62565b6040516105b5919061224d565b60405180910390f35b3480156105ca57600080fd5b506105e560048036038101906105e09190612622565b610f68565b6040516105f29190611fad565b60405180910390f35b34801561060757600080fd5b50610622600480360381019061061d9190612314565b610ffc565b60405161062f919061224d565b60405180910390f35b34801561064457600080fd5b5061065f600480360381019061065a9190612314565b611014565b005b600b60009054906101000a900460ff1681565b60007f80ac58cd000000000000000000000000000000000000000000000000000000007bffffffffffffffffffffffffffffffffffffffffffffffffffffffff1916827bffffffffffffffffffffffffffffffffffffffffffffffffffffffff1916148061073f57507f5b5e139f000000000000000000000000000000000000000000000000000000007bffffffffffffffffffffffffffffffffffffffffffffffffffffffff1916827bffffffffffffffffffffffffffffffffffffffffffffffffffffffff1916145b8061074f575061074e82611097565b5b9050919050565b60606000805461076590612691565b80601f016020809104026020016040519081016040528092919081815260200182805461079190612691565b80156107de5780601f106107b3576101008083540402835291602001916107de565b820191906000526020600020905b8154815290600101906020018083116107c157829003601f168201915b5050505050905090565b60006107f382611101565b6004600083815260200190815260200160002060009054906101000a900473ffffffffffffffffffffffffffffffffffffffff169050919050565b600061083982610acf565b90508073ffffffffffffffffffffffffffffffffffffffff168373ffffffffffffffffffffffffffffffffffffffff16036108a9576040517f08c379a00000000000000000000000000000000000000000000000000000000081526004016108a090612734565b60405180910390fd5b8073ffffffffffffffffffffffffffffffffffffffff166108c861114c565b73ffffffffffffffffffffffffffffffffffffffff1614806108f757506108f6816108f161114c565b610f68565b5b610936576040517f08c379a000000000000000000000000000000000000000000000000000000000815260040161092d906127c6565b60405180910390fd5b6109408383611154565b505050565b60085481565b61095361120d565b80600b60006101000a81548160ff02191690831515021790555050565b61098161097b61114c565b8261128b565b6109c0576040517f08c379a00000000000000000000000000000000000000000000000000000000081526004016109b790612858565b60405180910390fd5b6109cb838383611320565b505050565b6109d861120d565b6000600d60009054906101000a900473ffffffffffffffffffffffffffffffffffffffff1673ffffffffffffffffffffffffffffffffffffffff1647604051610a20906128a9565b60006040518083038185875af1925050503d8060008114610a5d576040519150601f19603f3d011682016040523d82523d6000602084013e610a62565b606091505b5050905080610aa6576040517f08c379a0000000000000000000000000000000000000000000000000000000008152600401610a9d9061290a565b60405180910390fd5b50565b610ac483838360405180602001604052806000815250610e84565b505050565b600a5481565b600080610adb83611619565b9050600073ffffffffffffffffffffffffffffffffffffffff168173ffffffffffffffffffffffffffffffffffffffff1603610b4c576040517f08c379a0000000000000000000000000000000000000000000000000000000008152600401610b4390612976565b60405180910390fd5b80915050919050565b60075481565b60008073ffffffffffffffffffffffffffffffffffffffff168273ffffffffffffffffffffffffffffffffffffffff1603610bcb576040517f08c379a0000000000000000000000000000000000000000000000000000000008152600401610bc290612a08565b60405180910390fd5b600360008373ffffffffffffffffffffffffffffffffffffffff1673ffffffffffffffffffffffffffffffffffffffff168152602001908152602001600020549050919050565b610c1a61120d565b610c246000611656565b565b600d60009054906101000a900473ffffffffffffffffffffffffffffffffffffffff1681565b6000600660009054906101000a900473ffffffffffffffffffffffffffffffffffffffff16905090565b610c7e61120d565b8181600c9182610c8f929190612bdf565b505050565b606060018054610ca390612691565b80601f0160208091040260200160405190810160405280929190818152602001828054610ccf90612691565b8015610d1c5780601f10610cf157610100808354040283529160200191610d1c565b820191906000526020600020905b815481529060010190602001808311610cff57829003601f168201915b5050505050905090565b600b60009054906101000a900460ff16610d75576040517f08c379a0000000000000000000000000000000000000000000000000000000008152600401610d6c90612cfb565b60405180910390fd5b60075481610d839190612d4a565b3414610dc4576040517f08c379a0000000000000000000000000000000000000000000000000000000008152600401610dbb90612dd8565b60405180910390fd5b600a5481600854610dd59190612d4a565b1115610e16576040517f08c379a0000000000000000000000000000000000000000000000000000000008152600401610e0d90612e44565b60405180910390fd5b60005b81811015610e6a5760006001600854610e329190612e64565b905060086000815480929190610e4790612e98565b9190505550610e56338261171c565b508080610e6290612e98565b915050610e19565b5050565b610e80610e7961114c565b838361173a565b5050565b610e95610e8f61114c565b8361128b565b610ed4576040517f08c379a0000000000000000000000000000000000000000000000000000000008152600401610ecb90612858565b60405180910390fd5b610ee0848484846118a6565b50505050565b6060610ef182611902565b610f30576040517f08c379a0000000000000000000000000000000000000000000000000000000008152600401610f2790612f2c565b60405180910390fd5b600c610f3b83611943565b604051602001610f4c929190613057565b6040516020818303038152906040529050919050565b60095481565b6000600560008473ffffffffffffffffffffffffffffffffffffffff1673ffffffffffffffffffffffffffffffffffffffff16815260200190815260200160002060008373ffffffffffffffffffffffffffffffffffffffff1673ffffffffffffffffffffffffffffffffffffffff16815260200190815260200160002060009054906101000a900460ff16905092915050565b600e6020528060005260406000206000915090505481565b61101c61120d565b600073ffffffffffffffffffffffffffffffffffffffff168173ffffffffffffffffffffffffffffffffffffffff160361108b576040517f08c379a0000000000000000000000000000000000000000000000000000000008152600401611082906130f8565b60405180910390fd5b61109481611656565b50565b60007f01ffc9a7000000000000000000000000000000000000000000000000000000007bffffffffffffffffffffffffffffffffffffffffffffffffffffffff1916827bffffffffffffffffffffffffffffffffffffffffffffffffffffffff1916149050919050565b61110a81611902565b611149576040517f08c379a000000000000000000000000000000000000000000000000000000000815260040161114090612976565b60405180910390fd5b50565b600033905090565b816004600083815260200190815260200160002060006101000a81548173ffffffffffffffffffffffffffffffffffffffff021916908373ffffffffffffffffffffffffffffffffffffffff160217905550808273ffffffffffffffffffffffffffffffffffffffff166111c783610acf565b73ffffffffffffffffffffffffffffffffffffffff167f8c5be1e5ebec7d5bd14f71427d1e84f3dd0314c0f7b2291e5b200ac8c7c3b92560405160405180910390a45050565b61121561114c565b73ffffffffffffffffffffffffffffffffffffffff16611233610c4c565b73ffffffffffffffffffffffffffffffffffffffff1614611289576040517f08c379a000000000000000000000000000000000000000000000000000000000815260040161128090613164565b60405180910390fd5b565b60008061129783610acf565b90508073ffffffffffffffffffffffffffffffffffffffff168473ffffffffffffffffffffffffffffffffffffffff1614806112d957506112d88185610f68565b5b8061131757508373ffffffffffffffffffffffffffffffffffffffff166112ff846107e8565b73ffffffffffffffffffffffffffffffffffffffff16145b91505092915050565b8273ffffffffffffffffffffffffffffffffffffffff1661134082610acf565b73ffffffffffffffffffffffffffffffffffffffff1614611396576040517f08c379a000000000000000000000000000000000000000000000000000000000815260040161138d906131f6565b60405180910390fd5b600073ffffffffffffffffffffffffffffffffffffffff168273ffffffffffffffffffffffffffffffffffffffff1603611405576040517f08c379a00000000000000000000000000000000000000000000000000000000081526004016113fc90613288565b60405180910390fd5b6114128383836001611a11565b8273ffffffffffffffffffffffffffffffffffffffff1661143282610acf565b73ffffffffffffffffffffffffffffffffffffffff1614611488576040517f08c379a000000000000000000000000000000000000000000000000000000000815260040161147f906131f6565b60405180910390fd5b6004600082815260200190815260200160002060006101000a81549073ffffffffffffffffffffffffffffffffffffffff02191690556001600360008573ffffffffffffffffffffffffffffffffffffffff1673ffffffffffffffffffffffffffffffffffffffff168152602001908152602001600020600082825403925050819055506001600360008473ffffffffffffffffffffffffffffffffffffffff1673ffffffffffffffffffffffffffffffffffffffff16815260200190815260200160002060008282540192505081905550816002600083815260200190815260200160002060006101000a81548173ffffffffffffffffffffffffffffffffffffffff021916908373ffffffffffffffffffffffffffffffffffffffff160217905550808273ffffffffffffffffffffffffffffffffffffffff168473ffffffffffffffffffffffffffffffffffffffff167fddf252ad1be2c89b69c2b068fc378daa952ba7f163c4a11628f55a4df523b3ef60405160405180910390a46116148383836001611a17565b505050565b60006002600083815260200190815260200160002060009054906101000a900473ffffffffffffffffffffffffffffffffffffffff169050919050565b6000600660009054906101000a900473ffffffffffffffffffffffffffffffffffffffff16905081600660006101000a81548173ffffffffffffffffffffffffffffffffffffffff021916908373ffffffffffffffffffffffffffffffffffffffff1602179055508173ffffffffffffffffffffffffffffffffffffffff168173ffffffffffffffffffffffffffffffffffffffff167f8be0079c531659141344cd1fd0a4f28419497f9722a3daafe3b4186f6b6457e060405160405180910390a35050565b611736828260405180602001604052806000815250611a1d565b5050565b8173ffffffffffffffffffffffffffffffffffffffff168373ffffffffffffffffffffffffffffffffffffffff16036117a8576040517f08c379a000000000000000000000000000000000000000000000000000000000815260040161179f906132f4565b60405180910390fd5b80600560008573ffffffffffffffffffffffffffffffffffffffff1673ffffffffffffffffffffffffffffffffffffffff16815260200190815260200160002060008473ffffffffffffffffffffffffffffffffffffffff1673ffffffffffffffffffffffffffffffffffffffff16815260200190815260200160002060006101000a81548160ff0219169083151502179055508173ffffffffffffffffffffffffffffffffffffffff168373ffffffffffffffffffffffffffffffffffffffff167f17307eab39ab6107e8899845ad3d59bd9653f200f220920489ca2b5937696c31836040516118999190611fad565b60405180910390a3505050565b6118b1848484611320565b6118bd84848484611a78565b6118fc576040517f08c379a00000000000000000000000000000000000000000000000000000000081526004016118f390613386565b60405180910390fd5b50505050565b60008073ffffffffffffffffffffffffffffffffffffffff1661192483611619565b73ffffffffffffffffffffffffffffffffffffffff1614159050919050565b60606000600161195284611bff565b01905060008167ffffffffffffffff81111561197157611970612474565b5b6040519080825280601f01601f1916602001820160405280156119a35781602001600182028036833780820191505090505b509050600082602001820190505b600115611a06578080600190039150507f3031323334353637383961626364656600000000000000000000000000000000600a86061a8153600a85816119fa576119f96133a6565b5b049450600085036119b1575b819350505050919050565b50505050565b50505050565b611a278383611d52565b611a346000848484611a78565b611a73576040517f08c379a0000000000000000000000000000000000000000000000000000000008152600401611a6a90613386565b60405180910390fd5b505050565b6000611a998473ffffffffffffffffffffffffffffffffffffffff16611f6f565b15611bf2578373ffffffffffffffffffffffffffffffffffffffff1663150b7a02611ac261114c565b8786866040518563ffffffff1660e01b8152600401611ae4949392919061342a565b6020604051808303816000875af1925050508015611b2057506040513d601f19601f82011682018060405250810190611b1d919061348b565b60015b611ba2573d8060008114611b50576040519150601f19603f3d011682016040523d82523d6000602084013e611b55565b606091505b506000815103611b9a576040517f08c379a0000000000000000000000000000000000000000000000000000000008152600401611b9190613386565b60405180910390fd5b805181602001fd5b63150b7a0260e01b7bffffffffffffffffffffffffffffffffffffffffffffffffffffffff1916817bffffffffffffffffffffffffffffffffffffffffffffffffffffffff191614915050611bf7565b600190505b949350505050565b600080600090507a184f03e93ff9f4daa797ed6e38ed64bf6a1f0100000000000000008310611c5d577a184f03e93ff9f4daa797ed6e38ed64bf6a1f0100000000000000008381611c5357611c526133a6565b5b0492506040810190505b6d04ee2d6d415b85acef81000000008310611c9a576d04ee2d6d415b85acef81000000008381611c9057611c8f6133a6565b5b0492506020810190505b662386f26fc100008310611cc957662386f26fc100008381611cbf57611cbe6133a6565b5b0492506010810190505b6305f5e1008310611cf2576305f5e1008381611ce857611ce76133a6565b5b0492506008810190505b6127108310611d17576127108381611d0d57611d0c6133a6565b5b0492506004810190505b60648310611d3a5760648381611d3057611d2f6133a6565b5b0492506002810190505b600a8310611d49576001810190505b80915050919050565b600073ffffffffffffffffffffffffffffffffffffffff168273ffffffffffffffffffffffffffffffffffffffff1603611dc1576040517f08c379a0000000000000000000000000000000000000000000000000000000008152600401611db890613504565b60405180910390fd5b611dca81611902565b15611e0a576040517f08c379a0000000000000000000000000000000000000000000000000000000008152600401611e0190613570565b60405180910390fd5b611e18600083836001611a11565b611e2181611902565b15611e61576040517f08c379a0000000000000000000000000000000000000000000000000000000008152600401611e5890613570565b60405180910390fd5b6001600360008473ffffffffffffffffffffffffffffffffffffffff1673ffffffffffffffffffffffffffffffffffffffff16815260200190815260200160002060008282540192505081905550816002600083815260200190815260200160002060006101000a81548173ffffffffffffffffffffffffffffffffffffffff021916908373ffffffffffffffffffffffffffffffffffffffff160217905550808273ffffffffffffffffffffffffffffffffffffffff16600073ffffffffffffffffffffffffffffffffffffffff167fddf252ad1be2c89b69c2b068fc378daa952ba7f163c4a11628f55a4df523b3ef60405160405180910390a4611f6b600083836001611a17565b5050565b6000808273ffffffffffffffffffffffffffffffffffffffff163b119050919050565b60008115159050919050565b611fa781611f92565b82525050565b6000602082019050611fc26000830184611f9e565b92915050565b6000604051905090565b600080fd5b600080fd5b60007fffffffff0000000000000000000000000000000000000000000000000000000082169050919050565b61201181611fdc565b811461201c57600080fd5b50565b60008135905061202e81612008565b92915050565b60006020828403121561204a57612049611fd2565b5b60006120588482850161201f565b91505092915050565b600081519050919050565b600082825260208201905092915050565b60005b8381101561209b578082015181840152602081019050612080565b60008484015250505050565b6000601f19601f8301169050919050565b60006120c382612061565b6120cd818561206c565b93506120dd81856020860161207d565b6120e6816120a7565b840191505092915050565b6000602082019050818103600083015261210b81846120b8565b905092915050565b6000819050919050565b61212681612113565b811461213157600080fd5b50565b6000813590506121438161211d565b92915050565b60006020828403121561215f5761215e611fd2565b5b600061216d84828501612134565b91505092915050565b600073ffffffffffffffffffffffffffffffffffffffff82169050919050565b60006121a182612176565b9050919050565b6121b181612196565b82525050565b60006020820190506121cc60008301846121a8565b92915050565b6121db81612196565b81146121e657600080fd5b50565b6000813590506121f8816121d2565b92915050565b6000806040838503121561221557612214611fd2565b5b6000612223858286016121e9565b925050602061223485828601612134565b9150509250929050565b61224781612113565b82525050565b6000602082019050612262600083018461223e565b92915050565b61227181611f92565b811461227c57600080fd5b50565b60008135905061228e81612268565b92915050565b6000602082840312156122aa576122a9611fd2565b5b60006122b88482850161227f565b91505092915050565b6000806000606084860312156122da576122d9611fd2565b5b60006122e8868287016121e9565b93505060206122f9868287016121e9565b925050604061230a86828701612134565b9150509250925092565b60006020828403121561232a57612329611fd2565b5b6000612338848285016121e9565b91505092915050565b600061234c82612176565b9050919050565b61235c81612341565b82525050565b60006020820190506123776000830184612353565b92915050565b600080fd5b600080fd5b600080fd5b60008083601f8401126123a2576123a161237d565b5b8235905067ffffffffffffffff8111156123bf576123be612382565b5b6020830191508360018202830111156123db576123da612387565b5b9250929050565b600080602083850312156123f9576123f8611fd2565b5b600083013567ffffffffffffffff81111561241757612416611fd7565b5b6124238582860161238c565b92509250509250929050565b6000806040838503121561244657612445611fd2565b5b6000612454858286016121e9565b92505060206124658582860161227f565b9150509250929050565b600080fd5b7f4e487b7100000000000000000000000000000000000000000000000000000000600052604160045260246000fd5b6124ac826120a7565b810181811067ffffffffffffffff821117156124cb576124ca612474565b5b80604052505050565b60006124de611fc8565b90506124ea82826124a3565b919050565b600067ffffffffffffffff82111561250a57612509612474565b5b612513826120a7565b9050602081019050919050565b82818337600083830152505050565b600061254261253d846124ef565b6124d4565b90508281526020810184848401111561255e5761255d61246f565b5b612569848285612520565b509392505050565b600082601f8301126125865761258561237d565b5b813561259684826020860161252f565b91505092915050565b600080600080608085870312156125b9576125b8611fd2565b5b60006125c7878288016121e9565b94505060206125d8878288016121e9565b93505060406125e987828801612134565b925050606085013567ffffffffffffffff81111561260a57612609611fd7565b5b61261687828801612571565b91505092959194509250565b6000806040838503121561263957612638611fd2565b5b6000612647858286016121e9565b9250506020612658858286016121e9565b9150509250929050565b7f4e487b7100000000000000000000000000000000000000000000000000000000600052602260045260246000fd5b600060028204905060018216806126a957607f821691505b6020821081036126bc576126bb612662565b5b50919050565b7f4552433732313a20617070726f76616c20746f2063757272656e74206f776e6560008201527f7200000000000000000000000000000000000000000000000000000000000000602082015250565b600061271e60218361206c565b9150612729826126c2565b604082019050919050565b6000602082019050818103600083015261274d81612711565b9050919050565b7f4552433732313a20617070726f76652063616c6c6572206973206e6f7420746f60008201527f6b656e206f776e6572206f7220617070726f76656420666f7220616c6c000000602082015250565b60006127b0603d8361206c565b91506127bb82612754565b604082019050919050565b600060208201905081810360008301526127df816127a3565b9050919050565b7f4552433732313a2063616c6c6572206973206e6f7420746f6b656e206f776e6560008201527f72206f7220617070726f76656400000000000000000000000000000000000000602082015250565b6000612842602d8361206c565b915061284d826127e6565b604082019050919050565b6000602082019050818103600083015261287181612835565b9050919050565b600081905092915050565b50565b6000612893600083612878565b915061289e82612883565b600082019050919050565b60006128b482612886565b9150819050919050565b7f7769746864726177206661696c65640000000000000000000000000000000000600082015250565b60006128f4600f8361206c565b91506128ff826128be565b602082019050919050565b60006020820190508181036000830152612923816128e7565b9050919050565b7f4552433732313a20696e76616c696420746f6b656e2049440000000000000000600082015250565b600061296060188361206c565b915061296b8261292a565b602082019050919050565b6000602082019050818103600083015261298f81612953565b9050919050565b7f4552433732313a2061646472657373207a65726f206973206e6f74206120766160008201527f6c6964206f776e65720000000000000000000000000000000000000000000000602082015250565b60006129f260298361206c565b91506129fd82612996565b604082019050919050565b60006020820190508181036000830152612a21816129e5565b9050919050565b600082905092915050565b60008190508160005260206000209050919050565b60006020601f8301049050919050565b600082821b905092915050565b600060088302612a957fffffffffffffffffffffffffffffffffffffffffffffffffffffffffffffffff82612a58565b612a9f8683612a58565b95508019841693508086168417925050509392505050565b6000819050919050565b6000612adc612ad7612ad284612113565b612ab7565b612113565b9050919050565b6000819050919050565b612af683612ac1565b612b0a612b0282612ae3565b848454612a65565b825550505050565b600090565b612b1f612b12565b612b2a818484612aed565b505050565b5b81811015612b4e57612b43600082612b17565b600181019050612b30565b5050565b601f821115612b9357612b6481612a33565b612b6d84612a48565b81016020851015612b7c578190505b612b90612b8885612a48565b830182612b2f565b50505b505050565b600082821c905092915050565b6000612bb660001984600802612b98565b1980831691505092915050565b6000612bcf8383612ba5565b9150826002028217905092915050565b612be98383612a28565b67ffffffffffffffff811115612c0257612c01612474565b5b612c0c8254612691565b612c17828285612b52565b6000601f831160018114612c465760008415612c34578287013590505b612c3e8582612bc3565b865550612ca6565b601f198416612c5486612a33565b60005b82811015612c7c57848901358255600182019150602085019450602081019050612c57565b86831015612c995784890135612c95601f891682612ba5565b8355505b6001600288020188555050505b50505050505050565b7f6d696e696e67206e6f7420656e61626c65640000000000000000000000000000600082015250565b6000612ce560128361206c565b9150612cf082612caf565b602082019050919050565b60006020820190508181036000830152612d1481612cd8565b9050919050565b7f4e487b7100000000000000000000000000000000000000000000000000000000600052601160045260246000fd5b6000612d5582612113565b9150612d6083612113565b9250828202612d6e81612113565b91508282048414831517612d8557612d84612d1b565b5b5092915050565b7f77726f6e67206d696e742076616c756500000000000000000000000000000000600082015250565b6000612dc260108361206c565b9150612dcd82612d8c565b602082019050919050565b60006020820190508181036000830152612df181612db5565b9050919050565b7f657863656564206d61782077616c6c6574000000000000000000000000000000600082015250565b6000612e2e60118361206c565b9150612e3982612df8565b602082019050919050565b60006020820190508181036000830152612e5d81612e21565b9050919050565b6000612e6f82612113565b9150612e7a83612113565b9250828201905080821115612e9257612e91612d1b565b5b92915050565b6000612ea382612113565b91507fffffffffffffffffffffffffffffffffffffffffffffffffffffffffffffffff8203612ed557612ed4612d1b565b5b600182019050919050565b7f546f6b656e20646f6573206e6f74206578697374210000000000000000000000600082015250565b6000612f1660158361206c565b9150612f2182612ee0565b602082019050919050565b60006020820190508181036000830152612f4581612f09565b9050919050565b600081905092915050565b60008154612f6481612691565b612f6e8186612f4c565b94506001821660008114612f895760018114612f9e57612fd1565b60ff1983168652811515820286019350612fd1565b612fa785612a33565b60005b83811015612fc957815481890152600182019150602081019050612faa565b838801955050505b50505092915050565b6000612fe582612061565b612fef8185612f4c565b9350612fff81856020860161207d565b80840191505092915050565b7f2e6a736f6e000000000000000000000000000000000000000000000000000000600082015250565b6000613041600583612f4c565b915061304c8261300b565b600582019050919050565b60006130638285612f57565b915061306f8284612fda565b915061307a82613034565b91508190509392505050565b7f4f776e61626c653a206e6577206f776e657220697320746865207a65726f206160008201527f6464726573730000000000000000000000000000000000000000000000000000602082015250565b60006130e260268361206c565b91506130ed82613086565b604082019050919050565b60006020820190508181036000830152613111816130d5565b9050919050565b7f4f776e61626c653a2063616c6c6572206973206e6f7420746865206f776e6572600082015250565b600061314e60208361206c565b915061315982613118565b602082019050919050565b6000602082019050818103600083015261317d81613141565b9050919050565b7f4552433732313a207472616e736665722066726f6d20696e636f72726563742060008201527f6f776e6572000000000000000000000000000000000000000000000000000000602082015250565b60006131e060258361206c565b91506131eb82613184565b604082019050919050565b6000602082019050818103600083015261320f816131d3565b9050919050565b7f4552433732313a207472616e7366657220746f20746865207a65726f2061646460008201527f7265737300000000000000000000000000000000000000000000000000000000602082015250565b600061327260248361206c565b915061327d82613216565b604082019050919050565b600060208201905081810360008301526132a181613265565b9050919050565b7f4552433732313a20617070726f766520746f2063616c6c657200000000000000600082015250565b60006132de60198361206c565b91506132e9826132a8565b602082019050919050565b6000602082019050818103600083015261330d816132d1565b9050919050565b7f4552433732313a207472616e7366657220746f206e6f6e20455243373231526560008201527f63656976657220696d706c656d656e7465720000000000000000000000000000602082015250565b600061337060328361206c565b915061337b82613314565b604082019050919050565b6000602082019050818103600083015261339f81613363565b9050919050565b7f4e487b7100000000000000000000000000000000000000000000000000000000600052601260045260246000fd5b600081519050919050565b600082825260208201905092915050565b60006133fc826133d5565b61340681856133e0565b935061341681856020860161207d565b61341f816120a7565b840191505092915050565b600060808201905061343f60008301876121a8565b61344c60208301866121a8565b613459604083018561223e565b818103606083015261346b81846133f1565b905095945050505050565b60008151905061348581612008565b92915050565b6000602082840312156134a1576134a0611fd2565b5b60006134af84828501613476565b91505092915050565b7f4552433732313a206d696e7420746f20746865207a65726f2061646472657373600082015250565b60006134ee60208361206c565b91506134f9826134b8565b602082019050919050565b6000602082019050818103600083015261351d816134e1565b9050919050565b7f4552433732313a20746f6b656e20616c7265616479206d696e74656400000000600082015250565b600061355a601c8361206c565b915061356582613524565b602082019050919050565b600060208201905081810360008301526135898161354d565b905091905056fea264697066735822122007bcfc0991428af5839497eb4dd015b5d2be79adf521cfa581a473e4cc9fd28964736f6c63430008130033",
  "linkReferences": {},
  "deployedLinkReferences": {}
}